:020000040000FA
:06000000D6EF07F012002C
:020006001200E6
:0600080004EF08F01200F5
:02000E000000F0
:060018000CEF08F01200DD
:02001E000100DF
:0C0020000E000000FE04000002000000C2
:04002C00F00E8B1631
:1000300094160401A36BA769A869A969A66B010EB0
:10004000AA6F1200D9CFE6FFE1CFD9FFE652040133
:10005000A3511FE1040108BF5BD1400EE66EA60E5E
:10006000E66E000EE66EF3EC05F0E552E552E55261
:100070000401010EA36FDF6A400EDF5C01E348D18B
:10008000DF50EA6A600FE96E000EEA22EF6ADF2AAB
:10009000F3D70001A651080A01E139D10F0A01E1A5
:1000A000EDD0010A01E1E4D0030A01E194D0010A94
:1000B0004BE0070A3FE0010A01E02AD10001020EED
:1000C000606F3A0E616F010E626F636F646B100EAA
:1000D000656F666B676B686B700E696F6A6B6B6BD5
:1000E000030E6C6F6D6B6E6B300E6F6F706B0E0E60
:1000F000716F726B736B746B010E756F766B776BD0
:10010000200E786F796B080E7A6F7B6B7C6B7D6B42
:100110007E69020E7E6F7F6B806BF00E816F826B4B
:10012000836B010E846F856B866B876904010CBF3E
:10013000EFD0DFD00401010EAA6F0001A75101E04A
:10014000E3D00401AA6BE0D0400E0401A46FA56BBC
:10015000000EA45D020EA5591FE2B4D9A4C400F09C
:10016000A5C401F0026A060E1F0BA4C4F6FFA5C4C5
:10017000F7FF02C0F8FF06E0D890F636F736F836FB
:10018000E806FAE1940EA66EAAD94DEC06F0040139
:10019000A42B000EA523DCD7DF6ADF50A96EA86868
:1001A000040EA66E4DEC06F09AD9DF50DF2A006EE1
:1001B000016A026AFF0E005C000E0158000E025830
:1001C000ECE3F66AF76A200EF86E940EA66EB50E92
:1001D000E66E5ED998D0300EA95D06E10401AA5101
:1001E00001E092D014D990D0F00EA95D02E135D98A
:1001F0008BD0E8680401A7190CE1E868A81909E1A7
:10020000E868A91906E1A7C0A7F4A8C0A8F4A9C086
:10021000A9F4A70EE96E040EEA6EEE500001A719CC
:1002200073E1EE50A81970E1EE50A9196DE16CE18F
:10023000DF6A0001AB51DF5C67E23A0ED880AB5554
:10024000DF2452D9E66E0401A651EA6AAB0FE96ECB
:10025000040EEA22E552E750EF6EA62BA72B000E04
:10026000A823A923200EA65D01E16DD8DF2AE1D7DE
:100270006AD80401A769A869A96947D00001070ED7
:10028000606FA7C061F0A8C062F0A9C063F0AAC007
:1002900064F0ABC065F0A7C0F6FFA8C0F7FFA9C027
:1002A000F8FFDF6A0001AB51DF5C20E2F00EA95DD0
:1002B0000AE1DF50A725A96EA66AA6803A0E06D9E4
:1002C000A8CFEFFF11D000D9300EF85C08E1050E81
:1002D000F65C01E1F568080EF65C01E1F5683A0E9E
:1002E0000001F4D8F5CFEFFFDF2ADCD704010CBF03
:1002F0000FD0400EE66E600EE66E000EE66EC3ECAA
:1003000005F0E552E552E5520401A36B01D005D892
:10031000E552E552E7CFD9FF12006D926D6A0001F8
:10032000A06BFF0E0001A05D0AE2E868E85004E05F
:10033000E80600D000D0FAD70001A02BF2D7FF00CA
:100340000000000012000001A26BA6C400F0016AC8
:10035000026A00500401A75DF66E01500401A8591D
:10036000F76E02500401A959F86E1F0EF614000131
:10037000A36FE00EF6160001A16B200E0001A15D37
:100380001FE20001A35115E10401A6510FE0000195
:10039000A251EA6AAB0FE96E040EEA22EF50F56E45
:1003A0000D000001A22B0401A60702D0F5680D0084
:1003B00004D0F5680D000001A3070001A12BDDD7D3
:1003C0000A00A40EA66EB50EE66E62D8E5520001D4
:1003D000A16B0401A6510001A15D18E20001A25128
:1003E0000001A125EA6AAB0FE96E040EEA22EF5084
:1003F000E66E0001A151EA6AAB0FE96E040EEA2233
:10040000E552E750EF6E0001A12BE3D71200A7C021
:10041000F6FFA8C0F7FFA9C0F8FF0001A46B000118
:10042000AB510001A45D18E23A0E0001D880AB5533
:100430000001A425EA6AAC0FE96E000EEA22EF5033
:10044000F56E0C00C40EA66EB50EE66E21D8E55210
:1004500009000001A42BE3D712000001A56B0001E5
:10046000AB510001A55D13E20001A7510001A525D4
:10047000A96E3A0E0001D880AB550001A52534D8ED
:10048000A86E040EA66E2BD80001A52BE8D712008B
:10049000D9CFE6FFE1CFD9FFF29EFE0EDB50B508C3
:1004A00005E0030ED36E0300FED7FF00550EA76EC6
:1004B000AA0EA76EA682A6B2FED7A694E552E7CFF3
:1004C000D9FF12000400120009001200D880AB55B9
:1004D000DF24EA6A660FE96E000EEA221200B50E0A
:1004E000E66ED6DFE5521200EA6AAC0FE96E000E46
:0604F000EA22EF501200A9
:0A04F6007AD9E6526C5032E16896A4
:10050000040100513C0BE842E8420D0828E1180EB6
:10051000021923E1040E031920E1100E026F040EEC
:10052000036FDF6ADF50006E016A080E005C000E88
:10053000015813E2DF50EA6A180FE96E040EEA224E
:10054000EF50E66EDF50EA6A100FE96E040EEA2201
:10055000E552E750EF6EDF2AE5D70ED80AD03FD834
:1005600008D0040E6C5C03E1689650D802D0000EEF
:1005700001D0010EE5523FD139D9E652040104BF42
:10058000046B0401FD6BF56BF66BFB6BFC6B07EC0E
:1005900004F0DF6ADF50006E016A010E005C000E9D
:1005A00001581AE20401F65117E1F76ADF34FE0B35
:1005B000F736F66E680EF6260E0EF7220900F5CF16
:1005C00000F00800F5CF01F004D001C0FAFF0050A0
:1005D000F96EFBDFDF2ADED7B4D8E5520CD1020E6C
:1005E0000401F55D0EE181D80401180E026F040EBE
:1005F000036F080E016F00BD02D0C80E05D0880E33
:1006000003D0D8D8E4D88C0E006F1200040E00017D
:10061000E65D09E112C46EFF6E50000802E2050EAD
:1006200001D0030EE66F0401F50510E111D8020EAA
:100630000401FD5D03E10401840E06D0040104BD44
:1006400002D0C80E01D0880E046F1200DAEF03F05A
:10065000CDD8020EE1260401080EFB5D000EFC5908
:100660000DE2FBC4DEFFFCC4DDFFFD5102E1010E23
:1006700003D0FD0506E1020EFD6F03D0080EDE6E0D
:10068000DD6A040104930491010EDB500413DFCFF3
:1006900005F4000EDB500401FB5F010EDB50FC5B38
:1006A000180EF96F040EFA6F0001E7A30CD097D86B
:1006B00015E0F7C4F6FFF8C4F7FF0800F5507FD83F
:1006C000F6E2DB06F4D78BD809E0F7C4E9FFF8C4FB
:1006D000EAFFEF5074D8F7E2DB06F5D7020EE15CD3
:1006E00002E2E16AE552E16E86D080D8020EE12690
:1006F000030E04010015E76E010EE7CFDBFF01C416
:10070000DFFFDE500401FB27DD50FC23180EF76FDE
:10071000040EF86F64D80EE0F7C4E9FFF8C4EAFFEE
:10072000EF50F9C4E9FFFAC4EAFFEF6E68D8F2E2CD
:10073000DB06F0D7020EE15C02E2E16AE552E16E0F
:100740005AD06D980401F65105E141D8840E006F2E
:1007500004011DD0040110AF1CD00401FB510401A1
:10076000165D0401FC510401175904E216C4FBF4A0
:1007700017C4FCF46DDF0401010EF56F28D8800E5C
:10078000006F0401180E066F040E076FC80E046F89
:1007900012000401020EF56F0401056BC80E046F10
:1007A0000401080E016F180E026F040E036FC80ECD
:1007B000006F12000401F56B0401046B1200F9C410
:1007C000E9FFFAC4EAFFEF6E0401FFEF03F0040152
:1007D000080E016F100E026F040E036F1200D9CFC6
:1007E000E9FFDACFEAFFEE50ED101200D9CFE6FFB5
:1007F000E1CFD9FF1200E552E7CFD9FF1200F92B64
:0E080000000EFA23F72BF823DF06010E12007C
:02080E000401E3
:100810001051600BE842E842E842E842E842000931
:1008200001E012001151070A40E00B0A3EE0070AFE
:1008300033E0010A23E00B0A1FE0020A1DE0030A6D
:1008400019E0080A10E0010A0CE00F0A08E0030AA8
:1008500001E0120012D90001040EE66F120056EFFB
:1008600004F08DEF04F009D90401E80EF76F000ED3
:10087000F86F0CD0A8EF04F0DAEF04F002D904010D
:10088000F76FF86BE90EF727000EF8230001E793E6
:100890000401010EFB6F1200F4D8EA6AE90FE96E59
:1008A000000EEA2212C4EFFF12001200800E0401B3
:1008B000105D32E11351030A1FE0010A0AE0030A46
:1008C00029E1DBD80401A80EF76F0D0EF86F120EA8
:1008D0001ED0B2D85E0EF6260E0EC0D8020E04014F
:1008E000F76AF725F66EF851F7220900F5CFFBF409
:1008F0000A00F5CFFCF40ED09FD8620EF6260E0E3D
:10090000ADD8F7C4F6FFF8C4F7FF0800F5500401AE
:10091000FB6FFC6B0001E7831200AFD80F0EE66E91
:10092000710EE66E0F0EA2D8010EE66EE90EE66EAF
:10093000000E9CD812C4E8F00401125104E1000139
:10094000050EE66F12000001060EE66FAEEF05F031
:100950000401186B196B040110511F0B020A0FE000
:10096000030A0BE0010A18E188D80401188100018C
:10097000E7A112D0040118830FD07FD80DD050D832
:1009800001E0010E62D8F9C4E9FFEA6EEF50040BF2
:1009900003E00401010E186F0401F6050AE10401E9
:1009A000180EF76F040EF86F0001E7930401020EB2
:1009B000FB6F1200040112050EE110511F0B00091C
:1009C0000AE15BD8030E0401115D03E10001E78138
:1009D00002D00001E7910401125121E110511F0BD7
:1009E00002081DE114510F0B000919E019D801E0AC
:1009F000010E2BD8030E0401115D02E1840E03D019
:100A000014AF07D0400EF9C4E9FFFAC4EAFFEF6E55
:100A10001200880EF9C4E9FFFAC4EAFFEF6E120073
:100A200030D80F0B080DF350016A000F006E040E52
:100A300001221451800B120020D804011251F66ECD
:100A4000F76AD890F636F7361200040DF350040119
:100A50000024F96F000E0120FA6F1200F72209003E
:100A6000F5CFF7F40A00F5CFF8F41200E66EBFEC0C
:100A700006F0E552E552E55212000401010EF66F50
:0A0A80001200FBDF04011451120004
:060A8A00040110511F0BD6
:100A9000010801E01200145101E01200060E115D80
:100AA00024E11351230A1FE0010A0DE0030A1BE1B0
:100AB000DBD80001E80505E10401CC0EF76F0D0E4F
:100AC000F86F090E0DD0D0D80001E80505E104014A
:100AD000410EF76F0E0EF86F0001E80504E11D0EE0
:100AE0000401FB6FFC6B0001E78304011051600BF4
:100AF000E842E842E842E842E842010801E0120028
:100B000011510B0A25E0080A17E0090A11E0080A4A
:100B100009E00B0A05E0080A01E01200ACEF05F05D
:100B2000ADEF05F0A1D80401EA0EF76F000E09D071
:100B30009BD813C4EAF0120097D80401EB0EF76FAC
:100B4000000EF86F0001E7930401010EFB6F120025
:100B50008BD812C4EBF01200120012000001EC6BF3
:100B60001E0E716E0401400E096F200E0A6F040EF6
:100B70000B6F880E086F0401600E0E6F040E0F6F6E
:100B8000400E0C6F1200D9CFE6FFE1CFD9FFE6523D
:100B9000FC0EDB50400805E2400EF36EFC0EF3CF76
:100BA000DBFFDF6AFC0EDB50DF5C0FE2DF5050D86A
:100BB000EF50E66EDF50EA6A600FE96E040EEA223B
:100BC000E552E750EF6EDF2AEDD7FC0EDBCF0DF4D8
:100BD000400E04010C170C7D880E0C13E552E552F3
:100BE000E7CFD9FF1200D9CFE6FFE1CFD9FF00014F
:100BF000EC6B040108BF26D0FC0EDBCF00F00951DE
:100C0000D880005403E2FC0E09C4DBFF0001EC6B4A
:100C1000FC0EDB50EC5D0FE2EC51EA6A200FE96E4E
:100C2000040EEA22EF50E66EEC5112D8E552E7507E
:100C3000EF6EEC2BEDD70401400E096F0817087D0D
:100C4000880E08130001EC51E552E7CFD9FF1200DE
:100C5000E76EFD0EDBCFE9FFFE0EDBCFEAFFE750CC
:100C6000E926000EEA2212000401020EF66F1200BD
:100C70006DA60CD80001E60508E16DBA06D0686AD9
:100C8000696A69806988020EE66F12006D6A696A96
:100C90006D860001010EE66F12000001E65101E1D0
:100CA000120068B425D86DB2120068B038D868B8A0
:100CB00017D868BA24D8030E0001E65D01E21200DD
:100CC0000001ED6B040EED5D0AE268A608D07BEC36
:100CD00002F0000901E168960001ED2BF3D7120044
:100CE000698468986D82A19AA08A0300A09A120074
:100CF0006D92699468A402D06894FCD7120070A029
:100D00000CD0800E0401005D07E1840E0401045D37
:100D100003E104018C0E006F7090689A12006A6AF9
:100D2000686A9F0E6B6E7B0E696E6E6A0F0EE66EC2
:100D3000710EE66E0F0EE66E22D8E552E552E552D0
:100D4000160E706E68A605D0689600D000D0000020
:100D5000F9D76D98DAEC03F00401080E016F040175
:100D6000100E026F040E036F04018C0E006F000161
:100D7000E7910001E86B0001030EE66F1200D9CF86
:100D8000E6FFE1CFD9FFFD0EDBCFE9FFFE0EDBCFA3
:100D9000EAFFFC0EDB5004E0EE6AFC0EDB06F9D73E
:080DA000E552E7CFD9FF120074
:080DA800120100020000000826
:100DB000D8043C00020001020001090229000101DF
:100DC00000C03209040000020300000009211101E3
:100DD0000001221D000705810340000107050103F2
:100DE0004000010403090434034D006900630072EC
:100DF000006F006300680069007000200054006507
:100E000000630068006E006F006C006F006700797F
:100E100000200049006E0063002E002603480049B0
:100E20000044002000550053004200200042006FA3
:100E3000006F0074006C006F006100640065007258
:100E4000000600FF0901A10119012940150026FF34
:100E500000750895408100190129409100C0BA0D24
:0A0E6000BA0DE30DE70D1B0E8A0A20
:060E6A001E0EF66E000EE4
:100E7000F76E000EF86E04010900F550F06F0900DE
:100E8000F550F16F03E1F06701D03DD00900F55056
:100E9000EB6F0900F550EC6F0900F550ED6F09009C
:100EA0000900F550E96E0900F550EA6E09000900E5
:100EB0000900F550EE6F0900F550EF6F09000900C9
:100EC000F6CFF2F4F7CFF3F4F8CFF4F4EBC4F6FF77
:100ED000ECC4F7FFEDC4F8FF0401EE5302E1EF5359
:100EE00007E00900F550EE6EEE07F8E2EF07F9D7DC
:100EF000F2C4F6FFF3C4F7FFF4C4F8FF0401F007EF
:080F0000000EF15BBFD71200E7
:080F08000F0EC16E81A804D098
:100F1000070EC16E00EF08F00ED8040016D819D8DD
:100F2000060E0001E65D05E16D50020B02E122ECC8
:100F300000F0F3D71200140E6F6E0001E66B000193
:100F4000E76B0001E86B16EF00F038EC06F04DEFB0
:100F500006F00401FE51FF1104E1100EFE6F270E92
:100F6000FF6FFE07000EFF5B060E0001E65D02E26A
:100F70008B8008D00401FE51FF1107E18B708B506C
:0C0F8000010B02E08B9212008B82120029
:040F8C00000EF36EF2
:100F900000EE00F0080E01D81200EA6002D0EE6AFE
:0C0FA000FCD7F350E9601200EE6AFCD7A9
:040FAC0013EE00F050
:100FB00023EE00F0F86A049C35EC07F003EC00F037
:080FC00084EC07F0FBD71200DE
:020000040030CA
:0100000024DB
:010001000EF0
:010002003FBE
:010003001EDE
:010005008377
:010006008178
:010008000FE8
:00000001FF
