:020000040000FA
:06000000C7EF13F012002F
:0600080004EF08F01200F5
:060018000CEF08F01200DD
:06100000C7EF13F012001F
:06100800A2EF0EF0120041
:06101800F7EF0EF01200DC
:06102A000100AC270000EC
:08103000B800000002000000FE
:081038006DEC0EF0A09A6A6A4B
:10104000686A706A67EC0EF002EC0EF0DF6ADF503F
:101050000B6E0C6A0C0E0B5C000E0C5810E2DF508D
:10106000040DF3CFE9FFF4CFEAFF000EE926040EEA
:10107000EA22EE6AEE6AEE6AEE6ADF2AE8D76D8C43
:101080006E6A6D986D9C68A607D068960001786BB3
:101090007D6B7E6B7F6BF7D70001010E916F926FB6
:1010A000936B946B856BDF6A030EDF5C11E2EA6A77
:1010B000DF3470EC0EF0EA22EE6AED6AEA6ADF34A1
:1010C00077EC0EF0EA22EE6AED6ABBEC0DF0ECD79D
:1010D0000001080E6E6F040E6F6F160E706E040125
:1010E000300E026F040E036F080E016F840E006F46
:1010F0000001616B606BE5528DEF0DF06DEC0EF051
:101100000001600507E16DBA05D0686A69806988E9
:10111000020E606F6850040B05E06950040B02E09A
:1011200068943FDB6DB245D06850010B09E069500F
:10113000010B06E081DFA08A0001040E606F689059
:101140006850100B05E06950100B02E020DB689836
:1011500068AC0FD069AC05D009EC0EF0730E7AECD8
:101160000DF0689C00018F5101E08F078F5101E164
:1011700009D96850200B04E06950200B01E0F7DA30
:101180006850020B0BE06950020B08E009EC0EF00E
:10119000E6687F0EE66E7EEC0EF06A6A040E0001D1
:1011A000E76E6019E8AE02D0E73402D0E750605D28
:1011B00002E2A19A2ED069A62BD0DF6A040EDF5C72
:1011C00027E268A625D06CCF86F000018651780B07
:1011D000E842E842E842876F689686B504D08751B6
:1011E00085EC0EF003D087518AEC0EF0EA22EF7006
:1011F000875102E1E2DA0AD0000EE66EE66A860E58
:10120000E66E000EE66E720E7AEC0DF0DF2AD6D78F
:10121000A19AE5528DEF0DF041EC0EF0FD0EDBA42E
:1012200003D0E66AF2EC0DF0FD0EDBA204D0010E55
:10123000E66EF2EC0DF0FE0EDB500C6A700F0B6EDA
:101240000F0EECEC0DF07EEC0DF0FD0EDBCFEFFFA2
:10125000020EE15C02E2E16AE552E16E8DEF0DF013
:1012600041EC0EF0FD0EDB5003E075EC0DF002D00A
:10127000ACEC0DF0D8EC0DF0D9CFE9FFDACFEAFFF6
:10128000EE50ED1003E1F36AF46A28D07EEC0DF025
:1012900099EC0EF0FB0EDBCFEEFFFC0EDBCFEDFF8B
:1012A0007EEC0DF0EE52FA0EDBCFEFFF400E8FEC2E
:1012B0000EF0880E9EEC0EF0FD0EDB5003E075EC98
:1012C0000DF002D0ACEC0DF0EA22EF74DECF0BF0A3
:1012D000DDCF0CF00BC0F3FF0CC0F4FF020EE15C9D
:1012E00002E2E16AE552E16E8DEF0DF041EC0EF0A5
:1012F000FE0EDB5003E14FEC0EF009D0B1EC0DF027
:101300002FEC0EF0B1EC0DF0010F2FEC0EF0020EF1
:10131000E15C02E2E16AE552E16E8DEF0DF088ECEE
:101320000DF06DA816D060EC0EF0400EEE16EE6AD1
:10133000EE6AEE6A60EC0EF0EE7CD7DBEA22EF7428
:10134000400E0B6E60EC0EF00B50EF1660EC0EF0E2
:10135000EF7CE3D36D6A696A0001606B12000001E3
:1013600060510FE16D6A696A02EC0EF0D08EA28ABC
:10137000A08AF28E6DB602D06D86FCD70001010EF8
:10138000606F12000001915122E1010E916F9251A4
:101390001EE1010E926F020E755D07E1B4DBEE52A5
:1013A000EF6AB1DBC80EEF6E1200750510E1886BB5
:1013B000C0DBEE52080EEF6EBCDB3BEC0EF0B9DB8F
:1013C000840EEF6E010E886F8CDB800EEF6E1200C4
:1013D0000001936B946B020E755D06E193EC0EF0C9
:1013E000ADDB2AEC0EF010D079510401365D00011E
:1013F0007A510401375904E236C479F037C47AF0DF
:1014000061D881DB9BDB7FDBC80EEF6E120041EC05
:101410000EF0000EDE6E040EDD6EA3DB040DF4CFC5
:101420000CF0D9CFE9FFDACFEAFFF350EE260C50EB
:10143000ED2264DBEF9EFD0EDB5002E18DDB01D07F
:1014400054DBEA22DECFEEFFDDCFEDFF57DBEF9C72
:1014500055DB040EE926000EEA22EF8C020EE15C59
:1014600002E2E16AE552E16E58D36D98000178BF5F
:101470000DD07DAF09D0020E756F945101E1A8DF48
:101480000001926B916B12004FEF0EF0040130AF30
:101490000DD00001010E756F935101E199DF00013C
:1014A000926B916B90510DE1C2EF09F00001020EB9
:1014B000756F17DB840EEF6E926B916B905101E1AB
:1014C00061DF12006DEC0EF0080EDF6E0001795D39
:1014D000000E7A590AE279C0DFFF745102E1010E71
:1014E00003D0740502E1020E746FDF500C6AE850FD
:1014F000795D796F0C507A597A6F05DBEE52DFCF48
:10150000EFFF380E826F040E836F78B10DD0DF507D
:1015100017E076C0F6FF77C0F7FF762B000E772333
:101520000800F55038DBF3D7DF500AE076C0E9FF5A
:1015300077C0EAFF762B000E7723EF502CDBF4D731
:10154000E552EBD29EDBF5DAEE52EFCFDFFFDFCFD5
:101550000BF00B5000017E5D000E7F5902E27EC051
:10156000DFFFDF500B6E0C6AE8507E5D7E6F0C5023
:101570007F597F6F010EDB6ADF50F36E010EDBCF08
:10158000F4FFF350F45C16E2010EDB50EA6A380F08
:10159000E96E040EEA22EF50E66E7BC0E9FF7CC0E4
:1015A000EAFF7B2B000E7C23E552E750EF6E010E25
:1015B000DB2AE2D7000ED8807E55000E7F550DE263
:1015C000B2DBBCDAB6DAEF50400B03E143DBC80E06
:1015D00002D040DB880EEF6E12D083DA840EEF6EFD
:1015E0008051811107E005D081C0FAFF00018051D0
:1015F000F96EFADF00017D9F905101E1C3DE020E1A
:10160000E15C02E2E16AE552E16E87D266DB00014D
:10161000788F5DDB300EE66EE66AE66A000EE66EF7
:10162000040E92DA6D8CDF6A030EDF5C02E2A3DA4D
:10163000FBD70BDB620EE66E000E86DA6D9C0001B6
:10164000080E6E6F040E6F6F000E646F040E656FF0
:1016500064C066F0676F32C461F0615102E1100E40
:101660000BD0010EE66EE66A610EE66E000EE66EC7
:10167000010E40DA0001200E606FE5524ED2800E5E
:101680000401305D38E10001C00E786F0401335170
:10169000030A1AE0010A09E0030A2BE10001D20E55
:1016A000766F250E776F120E1ED0C1DA930EF626D6
:1016B000260EA0DA020E0001B3DAF5CF79F0030EA0
:1016C000AFDAF5CF7AF01200030E325D0FE2AFDA37
:1016D000950EF626260E8EDA76C0F6FF77C0F7FF57
:1016E0000800F5500001796F7A6B12000001786BE9
:1016F00012000001786B1200C4DA0401386B396BF8
:1017000030511F0B020A11E0030A0CE0010A1EE12E
:101710000001788F040138810001840517E104017C
:10172000388314D00001788F11D00001788F040124
:1017300034BF02D0BBDA01D0BEDA3ADAC4DA06E04E
:10174000DDD9EF50040B02E0010E386F000178AFD5
:1017500007D0380E766F040E776F7881020E796F9E
:10176000020EE15C02E2E16AE552E16ED6D170A0C0
:101770000CD0DFD9EF50800807E1C5D9EF508408BD
:1017800003E1D7D98C0EEF6E7090689A12006984CD
:1017900068986D820001010E856F10DA750E7AEF80
:1017A0000DF00001856B0ADA740EA4D96D9269946C
:1017B00068A402D06894FCD712008FDA00012D0EC5
:1017C0008F6FFD0E861539E17E0E8615E8407F0B82
:1017D000040DF3CF64F0F4CF65F0000E6427040E1F
:1017E000652364C066F065C067F06675A2D9EF50E6
:1017F0003C0BE842E8420D081EE1DF6A080EDF5CA0
:1018000016E297D9020EE926000EBFD9EF50E66E18
:10181000DF50EA6A300FE96E040EEA22E552E75023
:10182000EF6E87D986DAEE2AEF22DF2AE7D781D951
:1018300022DA0AD807D023D805D0FD0E8615040871
:1018400001E12CD8E55269D10001746B906B936B68
:10185000946B886B756B57D9EF9E6E7554D9EF9E5C
:101860006E75F8D9EF9E786B796B7A6B7D6B7E6BBA
:101870007F6B4ED8A3D9030E3DD935EF0AF0020E87
:101880000001755D02E1A2EF0AF0756B885104E179
:1018900028D98C0EEF6E1200886B12001EDA33D935
:1018A000EF50400B01E0010EDF6E00016E75080E77
:1018B000605D08E132C46EFF6E5002E0100E01D090
:1018C000040E606F750513E11ED938D9FBDD020ED9
:1018D0000001745D03E117D9840E07D0DF5003E1E6
:1018E00012D9C80E02D00FD9880EEF6E0FD07DAF7F
:1018F0000CD08051811107E005D081C0FAFF0001B2
:101900008051F96EFADF00017D9F756BE55205D1BC
:1019100004013051600BE842E842E842E842E84204
:10192000000901E0120031510C0A45E00B0A3FE0CA
:101930000C0A31E0010A22E00B0A1EE0020A1CE058
:10194000030A18E0080A10E0010A0CE00F0A08E098
:10195000030A01E012000001788F080E606F120088
:101960003FEF0BF006EF0BF00001610E766F000EFB
:10197000776F0CD07CEF0BF0DCEF0CF034510001F2
:10198000766F776B620E7627000E77237881010ED3
:10199000796F788F12000001788F04013451EA6A60
:1019A000620FE96E000EEA2232C4EFFF120006D980
:1019B000020E7AEF0DF01200ABD8050EE1260401FD
:1019C000320510E130511F0B00090CE10001788F46
:1019D000030E0401315D04E10001010E846F02D0A9
:1019E0000001846B0401325101E074D030511F0BAF
:1019F000020870E134510F0B00096CE034510F0BF9
:101A0000020868E3200E0001605D64E1788F040144
:101A100034BF04D04BD9CCD8D7D803D04CD9C8D8F0
:101A2000D7D8EA22020EEFCFDBFF08D9010B03E182
:101A3000000EDF9401D0DF8434BF02D037D901D04B
:101A40003AD9EA22DECFEEFFDDCFEDFF030E315DA6
:101A50000CE139D907E034BF02D0B6D801D0B8D8EC
:101A6000EA22EF82840E6AD935D0DF742CD906E0E1
:101A700045D8EF9E43D8EF8C08D902D03FD8EF8CE1
:101A8000DF74DCD8020B02E11ED90DE0040134BF83
:101A900002D09AD801D09CD8EA22EF923B0E0B6E6E
:101AA0003ED9F3D802D03B0E3AD9040134510F0B82
:101AB0000C6A700F0B6E0F0E0C22030E0BC0DBFFB7
:101AC000040E0CC0DBFF030EDBCFE9FF040EDBCFFF
:101AD000EAFFEF90050EE15C02E2E16AE552E16E99
:101AE0001CD021D9C8D82AEF0EF0FE0EEA6ADB34EA
:101AF00070EF0EF0E66EE66A7EEF0EF0DECFE9FFE5
:101B0000DDCFEAFF12006EC0E9FF6FC0EAFF1200EE
:101B1000D9CFE6FFE1CFD9FF1200E552E7CFD9FFD9
:101B2000120034510F0BE96EEA6AD890E936EA36B2
:101B3000120064C0E9FF65C0EAFF1200FAD8380E4F
:101B4000EE6E040EED6E1200E66E9DEC13F00B6E61
:101B5000050EE15E0B501200FE0EEA6ADB3477EFF1
:101B60000EF0FD0EDB50E8240D6EFE0EDB50040D72
:101B7000F3500D241200DF50CDD8EA22EF6ADF5077
:101B8000C4D8EA22EF6ADF2A1200EA22EE50EFCF31
:101B9000EAFFE96E1200E66E82C0E9FF83C0EAFF49
:101BA000822B000E8323E552E750EF6EDF06120012
:101BB000EA22EECFDEFFEDCFDDFF1200000EE66E73
:101BC000E66AE66EE66A120034510F0B85EF0EF0FE
:101BD00034510F0B8AEF0EF00C220BC0DEFF0CC04D
:101BE000DDFF1200FE0EDBCFE6FF07EC0AF0E55248
:101BF000E5521200F7220900F5CF76F00A00F5CF82
:101C000077F01200160E6F6E9F0E6B6E7B0E696E74
:101C10001200010EE66EE66A000EE66EE66A12003B
:101C2000F76A7625F66E7751F722080012003251D6
:101C3000F66EF76AD890F636F7361200D950020FD2
:101C4000E96EDACFEAFFEF501200020EE66EE66AA6
:101C5000E66A120066C0E9FF67C0EAFF1200040DE1
:101C6000F3CF0BF0F4CF0CF0000E0B26040EB4DF14
:101C7000840E9EEF0EF05DD8300EEE6E040EED6E0B
:101C8000120046DF020EE1261200020EE66EE66A40
:101C9000DECFE6FFDDCFE6FF050E7AEF0DF021DFA8
:101CA0008C0EEF6E30DF840EEF6E12003ADF680E9E
:101CB000E926000E120035DF6E0EE926000E120036
:101CC00014DFC5EF0DF01ADFEF50800B1200BDDFFF
:101CD000710EE66E0F0EA4EF0DF01ADFE652120041
:101CE000FE0BEA36E96E6E0EE926000E1200FE0BC0
:101CF000EA36E96E680EE926000E1200A7EC10F035
:101D00000B6E060EE15E0B501200EA6A8C0FE96E54
:101D1000000E1200EA6A890FE96E000E1200EEDE74
:101D2000E850EF16120096DFEE52080EEF6E2AEF23
:101D30000EF0020EE926000EEA221200DFDEE85065
:041D4000EF1212008C
:0C1D4400DACFE4FFE2CFDAFFE9CFE4FFE2
:101D5000EACFE4FFF6CFE4FFF7CFE4FFF5CFE4FFEF
:101D6000F3CFE4FFF4CFE4FFFACFE4FF00EE00F09E
:101D70000B0EE80403E3EECFE4FFFBD700EE0BF01D
:101D8000030EE80403E3EECFE4FFFBD7E652F2A430
:101D900008D0C450E66E3CD8E552F294E2C7D6FFB4
:101DA000C2827EEC08F0E55200EE0DF0030EE8046E
:101DB00003E3E5CFEDFFFBD700EE0AF00B0EE804DE
:101DC00003E3E5CFEDFFFBD7E5CFFAFFE5CFF4FF67
:101DD000E5CFF3FFE5CFF5FFE5CFF7FFE5CFF6FF62
:101DE000E5CFEAFFE5CFE9FFE5CFDAFF1100D8CF75
:101DF000E4FFE0CFE4FFE46EDACFE4FFE652E55221
:101E0000E5CFDAFFE550E5CFE0FFE5CFD8FF1000E2
:101E1000E2D9000E0701E025E96E020EE121EA6E2B
:101E2000FE0EDBCFEFFFE02B000EE123D9D120D84F
:101E30000701E06BE16B900EE26F0001605102E17F
:101E4000AFEC09F033D8400E0701E1AF02D0D890D3
:101E500003D0E05D000EE159F0E3E06BE16B8B74C1
:101E6000000EE66E020EE66E74D8E552E552E5D736
:101E70000F0EC112F00E8B1694161CEC08F0928017
:101E8000010EC26E0E0EC16E2D0EC06ED58CD59A8F
:101E9000D596D594D592D590F28AF184D08E9E9C19
:101EA000B3D8E10EE66EBDD8E552120013D8200E6D
:101EB0000001E76E6019E8AE02D0E73402D0E750C7
:101EC000605D07E36D50020B01E0120062D813EC75
:101ED00012F012000001B851B91104E1100EB86FF0
:101EE000270EB96FB807000EB95B6DA207D0B851C5
:101EF000B9112EE18B708BB013D027D00001605147
:101F000002E18B9022D0600502E18B8009D0020EA5
:101F1000605D02E18B8019D0040E605D03E18B905F
:101F20008B821200100E605D06E10001B851B911FC
:101F30000FE18B700AD0200E605D0AE10001B851FC
:101F4000B91106E18B708BA002D08B9212008B82AC
:101F5000120041D9200E0001E76E6019E8AE02D0F0
:101F6000E73402D0E750605D13E36D50020B10E1DF
:101F7000000196510DE1400EE66EFD0EDBCFE6FF4F
:101F8000FE0EDBCFE6FFC2EC11F0E552E552E55262
:101F900027D121D9040EE126000196512EE1030E2E
:101FA000E66ED950010FE66E000EDA20E66E83EC85
:101FB00011F0E552E552E552DF6EDF501EE0010EF2
:101FC000DB50D20A15E0030A11E0010A0DE0100A05
:101FD00007E0600A12E1020EDBCFE6FF76D80CD0F4
:101FE000020EDBCFE2F709D0D59E07D0D58E05D003
:101FF000020EDBCFE6FF15D8E552040EE15C02E2EB
:10200000E16AE552E16EECD0C69A93909392949E69
:10201000C688C78CC79EC696C694C682C690C68A16
:102020001200D9CFE6FFE1CFD9FF020EE126FE0E66
:10203000DB50E80A23E00F0A1EE0010A19E0030A58
:1020400014E0010A0FE0070A0AE0010A05E0030AAA
:1020500001E017D0DF6A17D0010EDF6E14D0020E38
:10206000DF6E11D0030EDF6E0ED0040EDF6E0BD0CC
:10207000050EDF6E08D0060EDF6E05D0070EDF6E90
:1020800002D0050EDF6E8A90400EC96EC7B002D036
:102090000000FCD7010EC9CFDBFFDF50C96EC7B00F
:1020A00002D00000FCD7010EC9CFDBFF000000000A
:1020B000000000008A80020EE15C02E2E16AE55263
:1020C000E16EE552E7CFD9FF120085D8FE0EDBCFD7
:1020D0000BF0400EE76E0B18E8AE02D00B3403D0C5
:1020E000E750D8800B5405E2400EF36EFE0EF3CF9E
:1020F000DBFF76D01200120012001200F4EF10F095
:10210000120042EF11F00001840520E10001850575
:102110001DE1A09AF0DF6D920001856B0201100EA7
:10212000406F0E0E416F4007000E415B4051411160
:10213000FAE16D84080E406F070E416F4007000EF4
:10214000415B40514111FAE16D94A08A120043D8DD
:10215000FD0EDBCF06F0FE0EDBCF07F0050E0618F6
:1021600001E1075036E0E868061802E17F0E071823
:102170002FE0030E061801E1075028E0020E0618B2
:1021800001E1075021E0010E061801E107501AE0B5
:10219000740E061801E1075013E0750E061801E1F0
:1021A00007500CE0730E061801E1075005E0720EAF
:1021B00006180FE107500DD09FDF0BD09BDF09D031
:1021C0009ADF07D09EDF05D09BDF03D097DF01D0D9
:1021D00094DF010E05D0D9CFE6FFE1CFD9FF120081
:0821E000E552E7CFD9FF120020
:0821E800040130511F0B010836
:1021F00001E012003051600BE842E842E842E84258
:10220000E842010801E01200345103E0340501E026
:1022100012003151220A31E0030A24E0010A15E0DC
:10222000210A0DE0010A01E012000001A60E766FFE
:10223000000E776F080E796F7A6B788121D00001DC
:10224000A60E766F000E776F1BD036C47EF037C4B3
:102250007FF00001800E7B6F050E7C6F806B816BC1
:102260007D8F12000001800E766F050E776F070ECE
:10227000796F7A6BC10E786F120032C4A1F0000141
:10228000788F12000501806BC20E816F010E826F84
:10229000836B846B856B080E866F0001956B1A0E3D
:1022A000E66E010EE66E0CEC09F0E552E5521E0EEC
:1022B000E66E020EE66E0CEC09F0E552E55224D90A
:1022C00000019F6BA06B966B120049D97BD9050E5C
:1022D000061801E1075002E0000E14D050D90001A9
:1022E0009D510B1804E19E510C1801E10DD947D9FD
:1022F00000019F510B1805E1A0510C1802E1966BEB
:102300009B6B010E31D12BD90001956B9D519E1114
:1023100002E1000E05D041D9EF50800B01E0010E23
:1023200000092DE1FC0EDBCF0BF037D9EE52EF5058
:10233000D8800B5405E231D9EE52FC0EEFCFDBFF13
:10234000956BFC0EDB50955D19E29551EA6A400FE2
:10235000E96E050EEA22EF50E66E9551E76EFD0E2E
:10236000DBCFE9FFFE0EDBCFEAFFE750E926000EE8
:10237000EA22E552E750EF6E952BE3D7C5D800016E
:102380009551F2D0ECD8A09A0001965107E1F0D80F
:10239000FC0EDBCF9BF0010E9C6F966FA08AE4D001
:1023A0000AD917E1C6D8F2D802E10C500BE0010EB1
:1023B000DBCFE9FFDB2A020EDBCFEAFF01E3DB2AFA
:1023C000EF50F1E1D5D8DFCF9BF00001010E9C6FFB
:1023D000966FA08A030EE15C02E2E16AE552E16ECB
:1023E000C3D0E9D818E1A5D8D1D802E10C500CE04F
:1023F000010EDBCFF6FFDB2A020EDBCFF7FF01E396
:10240000DB2A0800F550F0E1B3D8DFCF9BF00001E4
:102410009C6B010E966FA08A030EE15C02E2E16AFA
:10242000E552E16EA1D09BD8020EE126A09A0001F0
:102430009F51A01102E1000E08D09FC0E9FFA0C08B
:10244000EAFFEF50800B01E0010E000906E1030EE8
:10245000965D01E1966B965102E1A08A4ED0020E84
:10246000965D09E1E66A000EE66EE66A5AD800015A
:10247000030E966F41D096053FE1400E0B6E0C6A3D
:102480009B510B5C000E0C5803E2400EDF6E02D035
:102490009BC0DFFFDF509B5D9B6F000E996F050EA9
:1024A0009A6F010EDFCFDBFF9C510BE1010EDB5079
:1024B00012E097C0F6FF98C0F7FF0800F55042D829
:1024C000F5D7010EDB5007E097C0E9FF98C0EAFF9F
:1024D000EF5038D8F6D700019B5107E1400EDF5C82
:1024E00002E1020E01D0030E966FDFCFE6FF000E71
:1024F000E66E050EE66E15D8A08A020EE15C02E2D9
:10250000E16AE552E16E30D0400EE66E400EE66EB6
:10251000050EE66EE66A46D8F3CF9DF0F4CF9EF046
:102520001200010EE66E3ED8F3CF9FF0F4CFA0F07C
:102530001200DF6A47D8DE5206C0DEFF07C0DDFFAB
:10254000DD52120099C0E9FF9AC0EAFFEF6E992BA5
:10255000000E9A23972B9823010EDB061200D9CF89
:10256000E6FFE1CFD9FF1200E552E7CFD9FF120015
:10257000FD0EDBCF97F0FE0EDBCF98F01200FB0EC6
:10258000DBCF0BF0FC0EDBCF0CF01200DF2ADF50AC
:102590000B6E0C6AFF0E0B1812009DC0E9FF9EC067
:1025A000EAFF1200020EE66E30EC09F00B6E050E2B
:1025B000E15E0B501200D3DF030EE126A09A00016A
:1025C00096511200FD0EDBCF06F0FE0EDBCF07F0BA
:0225D0001200F7
:0E25D2001201000202000008D8040A000001F5
:1025E0000102000109024300020100C03209040097
:1025F000000102020100052400100104240202056A
:1026000024060001052401000107058103080002DA
:1026100009040100020A0000000705020240000050
:10262000070582024000000403090434034D0069D9
:1026300000630072006F0063006800690070002092
:102640000054006500630068006E006F006C006F4E
:102650000067007900200049006E0063002E0034FE
:10266000034300440043002000520053002D003279
:102670000033003200200045006D0075006C0061E1
:1026800000740069006F006E002000440065006D5A
:0B269000006F00E42527262B265F26A4
:04269C002A0EF66E9E
:1026A000100EF76E000EF86E00010900F550B36FC2
:1026B0000900F550B46F03E1B36701D03DD00900C4
:1026C000F550AE6F0900F550AF6F0900F550B06FCF
:1026D00009000900F550E96E0900F550EA6E09009D
:1026E00009000900F550B16F0900F550B26F0900FB
:1026F0000900F6CFB5F0F7CFB6F0F8CFB7F0AEC01F
:10270000F6FFAFC0F7FFB0C0F8FF0001B15302E120
:10271000B25307E00900F550EE6EB107F8E2B207D8
:10272000F9D7B5C0F6FFB6C0F7FFB7C0F8FF000194
:0A273000B307000EB45BBFD7120020
:06273A00FE0EE3CFE9FFF3
:10274000FF0EE3CFEAFFE9CFF3FFEACFF4FFFB0E82
:10275000E35003E1FC0EE35009E0FB0EE30602E266
:0E276000FC0EE306FD0EE350EE6EF1D7120004
:02276E00000E5B
:10277000F36E00EE00F0080E01D81200EA6002D0FD
:0E278000EE6AFCD7F350E9601200EE6AFCD757
:02278E0011EE4A
:1027900000F021EE00F0F86A0A9C4EEC13F0D5EC44
:0A27A00013F017EC0FF0FBD7120046
:0227AA0012001B
:0227AC0000002B
:020000040030CA
:0100000024DB
:010001000EF0
:010002003FBE
:010003001EDE
:010005008377
:010006008178
:010008000FE8
:00000001FF
